:03000000020040BB
:0300080011D532DD
:0300100011E232C8
:100040007580FF75900075A0FF7B00517731C875F2
:100050008911C28FD2AB758D3F758B00C28DD2A92D
:10006000758C1C758AB0D28ED28CD2AF7532FF756A
:1000700033FF30902D2090FD0BBB03067B0031B188
:1000800031DCBB000AD28C7532FF7533FF8013C29E
:100090008CBB010875327F7533FF800675337F7521
:1000A00032FF3091152091FDBB010608B818027887
:1000B00000BB020609B93C0279003092B52092FDDE
:1000C000BB010618B8FF027817BB02A619B9FFA238
:1000D000793B020072C28C758C1C758AB031F2318A
:1000E0008622C28EC28F758DBF758B00E875F00AAF
:1000F00084F53085F0319002C6E530935532F580B5
:1001000075A0FE51BD75A0FFE531935532F58075A0
:10011000A0FD51BD75A0FF740A93F58075A0FB5139
:10012000BD75A0FFE975F00A84F53085F0319002C5
:10013000C6E530935533F58075A0F751BD75A0FF26
:10014000E531935533F58075A0EF51BD75A0FF746F
:100150000A93F58075A00F51BD75A0FFEA75F00AEE
:1001600084F53085F0319002C6E53093F58075A0B6
:10017000BF51BD75A0FFE53193F58075A07F51BDDE
:1001800075A0FFD28E22EAC4540F75F00AA4FFEACC
:10019000540F2FFAE9C4540F75F00AA4FFE9540F65
:1001A0002FF9E8C4540F75F00AA4FFE8540F2FF894
:1001B00022E975F00A84C4540F25F0F9E875F00AB5
:1001C00084C454F025F0F822517C74D012020E74CD
:1001D0000012020E740012020E518E22517C74D055
:1001E000510E7400510EEA510EE9510EE8510E51B4
:1001F0008E22517C74D0510E7400510E519A7401AC
:10020000510E5133FA5133F95155F8518E22C0072E
:100210007F08C2B63392B70000D2B60000DFF3C247
:10022000B600000000D2B7D2B600A2B70000C2B636
:10023000D00722C0077F08D2B7D2B600A2B73300DA
:10024000C2B6000000DFF2C2B700D2B60000000064
:10025000C2B6D00722C0077F08D2B7D2B600A2B775
:100260003300C2B6000000DFF2C2B700D2B6000011
:0B0270000000C2B6D00722D2B6D2B701
:10027B0022D2B7D2B60000000000C2B700000000C7
:10028B00C2B622C2B7D2B60000000000D2B722D24B
:10029B00B7D2B60000000000C2B700000000C2B623
:1002AB000000220000D2B60000220000C2B60000FF
:1002BB0000227D0A7E64DEFEDDFA22C0F9A4B0992D
:0602CB009282F88090BF52
:00000001FF
